{
  "_format": "hh-sol-artifact-1",
  "contractName": "MoStarPayoutVault",
  "sourceName": "contracts/MoStarPayoutVault.sol",
  "abi": [
    {
      "inputs": [
        {
          "internalType": "address",
          "name": "initialOwner",
          "type": "address"
        }
      ],
      "stateMutability": "nonpayable",
      "type": "constructor"
    },
    {
      "inputs": [
        {
          "internalType": "address",
          "name": "owner",
          "type": "address"
        }
      ],
      "name": "OwnableInvalidOwner",
      "type": "error"
    },
    {
      "inputs": [
        {
          "internalType": "address",
          "name": "account",
          "type": "address"
        }
      ],
      "name": "OwnableUnauthorizedAccount",
      "type": "error"
    },
    {
      "anonymous": false,
      "inputs": [
        {
          "indexed": true,
          "internalType": "address",
          "name": "previousOwner",
          "type": "address"
        },
        {
          "indexed": true,
          "internalType": "address",
          "name": "newOwner",
          "type": "address"
        }
      ],
      "name": "OwnershipTransferred",
      "type": "event"
    },
    {
      "anonymous": false,
      "inputs": [
        {
          "indexed": true,
          "internalType": "address",
          "name": "to",
          "type": "address"
        },
        {
          "indexed": false,
          "internalType": "uint256",
          "name": "amount",
          "type": "uint256"
        }
      ],
      "name": "Payout",
      "type": "event"
    },
    {
      "inputs": [],
      "name": "owner",
      "outputs": [
        {
          "internalType": "address",
          "name": "",
          "type": "address"
        }
      ],
      "stateMutability": "view",
      "type": "function"
    },
    {
      "inputs": [
        {
          "internalType": "address payable",
          "name": "to",
          "type": "address"
        },
        {
          "internalType": "uint256",
          "name": "amount",
          "type": "uint256"
        }
      ],
      "name": "payout",
      "outputs": [],
      "stateMutability": "nonpayable",
      "type": "function"
    },
    {
      "inputs": [],
      "name": "renounceOwnership",
      "outputs": [],
      "stateMutability": "nonpayable",
      "type": "function"
    },
    {
      "inputs": [
        {
          "internalType": "address",
          "name": "newOwner",
          "type": "address"
        }
      ],
      "name": "transferOwnership",
      "outputs": [],
      "stateMutability": "nonpayable",
      "type": "function"
    },
    {
      "inputs": [],
      "name": "withdraw",
      "outputs": [],
      "stateMutability": "nonpayable",
      "type": "function"
    },
    {
      "stateMutability": "payable",
      "type": "receive"
    }
  ],
  "bytecode": "0x608060405234801561001057600080fd5b50604051610999380380610999833981810160405281019061003291906101e2565b80600073ffffffffffffffffffffffffffffffffffffffff168173ffffffffffffffffffffffffffffffffffffffff16036100a55760006040517f1e4fbdf700000000000000000000000000000000000000000000000000000000815260040161009c919061021e565b60405180910390fd5b6100b4816100bb60201b60201c565b5050610239565b60008060009054906101000a900473ffffffffffffffffffffffffffffffffffffffff169050816000806101000a81548173ffffffffffffffffffffffffffffffffffffffff021916908373ffffffffffffffffffffffffffffffffffffffff1602179055508173ffffffffffffffffffffffffffffffffffffffff168173ffffffffffffffffffffffffffffffffffffffff167f8be0079c531659141344cd1fd0a4f28419497f9722a3daafe3b4186f6b6457e060405160405180910390a35050565b600080fd5b600073ffffffffffffffffffffffffffffffffffffffff82169050919050565b60006101af82610184565b9050919050565b6101bf816101a4565b81146101ca57600080fd5b50565b6000815190506101dc816101b6565b92915050565b6000602082840312156101f8576101f761017f565b5b6000610206848285016101cd565b91505092915050565b610218816101a4565b82525050565b6000602082019050610233600083018461020f565b92915050565b610751806102486000396000f3fe60806040526004361061004e5760003560e01c8063117de2fd1461005a5780633ccfd60b14610083578063715018a61461009a5780638da5cb5b146100b1578063f2fde38b146100dc57610055565b3661005557005b600080fd5b34801561006657600080fd5b50610081600480360381019061007c9190610533565b610105565b005b34801561008f57600080fd5b5061009861022c565b005b3480156100a657600080fd5b506100af610284565b005b3480156100bd57600080fd5b506100c6610298565b6040516100d39190610594565b60405180910390f35b3480156100e857600080fd5b5061010360048036038101906100fe91906105db565b6102c1565b005b61010d610347565b60008111610150576040517f08c379a000000000000000000000000000000000000000000000000000000000815260040161014790610665565b60405180910390fd5b80471015610193576040517f08c379a000000000000000000000000000000000000000000000000000000000815260040161018a906106d1565b60405180910390fd5b8173ffffffffffffffffffffffffffffffffffffffff166108fc829081150290604051600060405180830381858888f193505050501580156101d9573d6000803e3d6000fd5b508173ffffffffffffffffffffffffffffffffffffffff167f5afeca38b2064c23a692c4cf353015d80ab3ecc417b4f893f372690c11fbd9a6826040516102209190610700565b60405180910390a25050565b610234610347565b61023c610298565b73ffffffffffffffffffffffffffffffffffffffff166108fc479081150290604051600060405180830381858888f19350505050158015610281573d6000803e3d6000fd5b50565b61028c610347565b61029660006103ce565b565b60008060009054906101000a900473ffffffffffffffffffffffffffffffffffffffff16905090565b6102c9610347565b600073ffffffffffffffffffffffffffffffffffffffff168173ffffffffffffffffffffffffffffffffffffffff160361033b5760006040517f1e4fbdf70000000000000000000000000000000000000000000000000000000081526004016103329190610594565b60405180910390fd5b610344816103ce565b50565b61034f610492565b73ffffffffffffffffffffffffffffffffffffffff1661036d610298565b73ffffffffffffffffffffffffffffffffffffffff16146103cc57610390610492565b6040517f118cdaa70000000000000000000000000000000000000000000000000000000081526004016103c39190610594565b60405180910390fd5b565b60008060009054906101000a900473ffffffffffffffffffffffffffffffffffffffff169050816000806101000a81548173ffffffffffffffffffffffffffffffffffffffff021916908373ffffffffffffffffffffffffffffffffffffffff1602179055508173ffffffffffffffffffffffffffffffffffffffff168173ffffffffffffffffffffffffffffffffffffffff167f8be0079c531659141344cd1fd0a4f28419497f9722a3daafe3b4186f6b6457e060405160405180910390a35050565b600033905090565b600080fd5b600073ffffffffffffffffffffffffffffffffffffffff82169050919050565b60006104ca8261049f565b9050919050565b6104da816104bf565b81146104e557600080fd5b50565b6000813590506104f7816104d1565b92915050565b6000819050919050565b610510816104fd565b811461051b57600080fd5b50565b60008135905061052d81610507565b92915050565b6000806040838503121561054a5761054961049a565b5b6000610558858286016104e8565b92505060206105698582860161051e565b9150509250929050565b600061057e8261049f565b9050919050565b61058e81610573565b82525050565b60006020820190506105a96000830184610585565b92915050565b6105b881610573565b81146105c357600080fd5b50565b6000813590506105d5816105af565b92915050565b6000602082840312156105f1576105f061049a565b5b60006105ff848285016105c6565b91505092915050565b600082825260208201905092915050565b7f416d6f756e74206d7573742062652067726561746572207468616e207a65726f600082015250565b600061064f602083610608565b915061065a82610619565b602082019050919050565b6000602082019050818103600083015261067e81610642565b9050919050565b7f496e73756666696369656e742066756e647320696e207661756c740000000000600082015250565b60006106bb601b83610608565b91506106c682610685565b602082019050919050565b600060208201905081810360008301526106ea816106ae565b9050919050565b6106fa816104fd565b82525050565b600060208201905061071560008301846106f1565b9291505056fea2646970667358221220863746bc9eb07718c9298dc7bba826c23afd942cfd8336a8dc58e51be50b1fc964736f6c63430008140033",
  "linkReferences": {},
  "deployedLinkReferences": {}
}